:100000000C945D000C9485000C9485000C94850084
:100010000C9485000C9485000C9485000C9485004C
:100020000C9485000C9485000C9485000C9485003C
:100030000C9485000C9485000C9485000C9485002C
:100040000C94E9030C9485000C94D1060C940307DE
:100050000C9485000C9485000C9485000C9485000C
:100060000C9485000C94850000000008000201003B
:100070000003040700000000000000000102040863
:100080001020408001020408102001020408102002
:10009000040404040404040402020202020203032E
:1000A0000303030300000000250028002B000000CC
:1000B0000000240027002A00330711241FBECFEFC1
:1000C000D8E0DEBFCDBF12E0A0E0B1E0E6EAF1E1AA
:1000D00002C005900D92A230B107D9F722E0A2E04C
:1000E000B2E001C01D92AD3EB207E1F710E0CAEBED
:1000F000D0E004C02297FE010E94CD08C83BD10782
:10010000C9F70E9477070C94D1080C94000040EDC9
:1001100057E060E070E080E192E00E94500320E050
:1001200032EC41E050E060E572E080E192E00E9454
:10013000630380E192E00E944D0364E071E08091EE
:100140004102909142020E94C4076AE070E080E0A0
:1001500090E00E94620441E060E080E192E00E9451
:10016000CE0326E040EF53E260E070E080E592E0ED
:100170000E946F0660E081E00E941D0560E082E061
:100180000E941D0560E083E00E941D0560E084E0A0
:100190000E941D0560E085E00E941D0560E086E08C
:1001A0000E941D0561E087E00E941D0561E087E077
:1001B0000E94560561E088E00E941D0561E088E02C
:1001C0000E94560561E089E00E941D0561E089E01A
:1001D0000E94560561E08AE00E941D0561E08AE008
:1001E0000E94560561E08BE00E941D0561E08BE0F6
:1001F0000E94560561E08CE00E941D0561E08CE0E4
:100200000E94560561E08DE00E941D0560E08DE0D2
:100210000C94560580910001882379F082E00E94B9
:10022000D704883C91050CF4CAC084E00E94D7042E
:10023000883C91050CF4C3C00DC084E00E94D70433
:10024000883C91050CF4BBC084E00E94D704813245
:10025000934014F01092030266E171E080E592E0B1
:100260000E94C4076091030270E04AE050E080E51C
:1002700092E00E947C0880910302882309F484C0E4
:1002800060E08BE00E94560580910101909102018F
:1002900097FD1DC080FD1BC061E08AE00E945605ED
:1002A00060E088E00E94560561E087E00E94560504
:1002B0008091010190910201019690930201809337
:1002C000010162E271E080E592E00E94D107809135
:1002D00006029091070297FD1DC080FD1BC061E0E2
:1002E0008AE00E94560560E087E00E94560561E0C2
:1002F00088E00E94560580910602909107020196BF
:10030000909307028093060263E371E080E592E038
:100310000E94D107809101019091020197FF05C0D1
:1003200001969093020180930101809106029091C1
:10033000070297FF05C0019690930702809306027B
:1003400080910101909102010597ECF160E08BE052
:100350000E94560561E087E00E94560561E088E052
:100360000E9456058CEF9FEF909307028093060240
:100370008DEF9FEF909302018093010164E471E09F
:1003800080E592E00C94D10761E087E00E94560579
:1003900061E088E00E94560561E08AE00E9456050F
:1003A00061E08BE00E94560510920702109206024F
:1003B00081E090E09093020180930101089581E033
:1003C0008093030249CF089580910001882379F03A
:1003D00083E00E94D704883C91050CF476C085E048
:1003E0000E94D704883C91050CF46FC00DC085E0D5
:1003F0000E94D704883C91050CF467C085E00E94F8
:10040000D7048132934014F01092020260E571E04B
:1004100080E592E00E94C4076091020270E04AE029
:1004200050E080E592E00E947C08809102028823DF
:1004300009F443C060E08CE00E94560580910402FC
:10044000909105029C01215031092430310580F43E
:1004500060E089E00E9456058091040290910502B7
:10046000019690930502809304026BE571E021C030
:1004700097FF0DC061E089E00E945605809104025B
:100480009091050201969093050280930402809159
:100490000402909105020597E4F08BEF9FEF909393
:1004A00005028093040261E089E00E9456056AE635
:1004B00071E080E592E00C94D10761E089E00E9450
:1004C000560561E08CE00C94560581E080930202B1
:1004D0009DCF089586E00E94D704883C910514F4CE
:1004E00060E007C086E00E94D7048132934024F088
:1004F00061E08DE00C9456050895CF92DF92EF9263
:10050000FF920F931F930E943304672B682B692B74
:1005100041F40E943304623071058105910508F4AD
:1005200076C00E943304609308027093090280939E
:100530000A0290930B0200910C0210910D0220917F
:100540000E0230910F02601771078207930740F483
:1005500060930C0270930D0280930E0290930F0231
:1005600000910C0210910D0220910E0230910F02A9
:100570006B017C01C01AD10AE20AF30A97018601D5
:100580000A3F11052105310508F441C060930C02B2
:1005900070930D0280930E0290930F0280E192E01F
:1005A0000E944D036AE771E08091410290914202FE
:1005B0000E94C40762E871E080914102909142027A
:1005C0000E94C4070E943304AB01BC012AE030E062
:1005D00080914102909142020E94940864E871E087
:1005E00080914102909142020E94C40765E070E050
:1005F00080E090E00E9462046AE070E080E090E0B9
:100600000E94620461E080E192E00E94900381E038
:100610000E94D704883C910524F481E08093000176
:1006200002C0109200010E946A020E940A010E9408
:10063000E40168EE73E080E090E01F910F91FF907D
:10064000EF90DF90CF900C9462040F931F93CF93A1
:10065000DF93EC01662359F00E94330469837A83A7
:100660008B839C83DF91CF911F910F9108950E94FE
:10067000330409811A812B813C81601B710B820B31
:10068000930B643671058105910530F763E070E0E6
:1006900080E090E00E946204EACF60E00C942503C1
:1006A000FC0113AA14AA15AA16AA11821282138297
:1006B0001482411551056105710521F0CB01BA0184
:1006C0000C9462040895FB01BA01A901DC01D296E1
:1006D000FC93EE93D19726E0CF010C946F061F9305
:1006E000CF93DF93EC01162F6DE871E089A99AA9E9
:1006F0000E94C4074AE050E0612F89A99AA90E948C
:10070000A10864E971E089A99AA90E94C40762E37B
:1007100070E080E090E0DF91CF911F910C94620433
:100720001F93CF93DF93EC01162F8D81882389F1DE
:1007300089A99AA9DC01ED91FC910480F581E02D55
:100740000995892BA9F307C02637310519F12835FA
:10075000310509F41D8289A99AA9DC01ED91FC916A
:100760000480F581E02D09951816190694F489A9DD
:100770009AA9DC01ED91FC910680F781E02D0995A5
:100780009C01332723363105F9F6612FCE010E94F3
:100790006F0383E6DF91CF911F9108950F931F930D
:1007A000CF93DF931F92CDB7DEB78C01662349F05C
:1007B00081E0F801858360E0C80149830E949003CD
:1007C0004981F80145830F90DF91CF911F910F91DF
:1007D00008951F920F920FB60F9211242F933F93FB
:1007E0008F939F93AF93BF9380914802909149025A
:1007F000A0914A02B0914B023091470223E0230FAF
:100800002D3720F40196A11DB11D05C026E8230F48
:100810000296A11DB11D2093470280934802909338
:100820004902A0934A02B0934B0280914C029091EE
:100830004D02A0914E02B0914F020196A11DB11D33
:1008400080934C0290934D02A0934E02B0934F02BE
:10085000BF91AF919F918F913F912F910F900FBEBC
:100860000F901F9018952FB7F894609148027091DF
:10087000490280914A0290914B022FBF08953FB7E1
:10088000F89480914C0290914D02A0914E02B0914B
:100890004F0226B5A89B05C02F3F19F00196A11D58
:1008A000B11D3FBF6627782F892F9A2F620F711DC8
:1008B000811D911D42E0660F771F881F991F4A9581
:1008C000D1F708958F929F92AF92BF92CF92DF920D
:1008D000EF92FF926B017C010E943F044B015C018F
:1008E000C114D104E104F104F1F00E94A8080E94AF
:1008F0003F04681979098A099B09683E734081059C
:10090000910570F321E0C21AD108E108F10888EEE0
:10091000880E83E0981EA11CB11CC114D104E1040F
:10092000F10429F7DDCFFF90EF90DF90CF90BF90DB
:10093000AF909F908F900895789484B5826084BD25
:1009400084B5816084BD85B5826085BD85B58160D3
:1009500085BDEEE6F0E0808181608083E1E8F0E033
:100960001082808182608083808181608083E0E862
:10097000F0E0808181608083E1EBF0E08081846041
:100980008083E0EBF0E0808181608083EAE7F0E043
:1009900080818460808380818260808380818160A7
:1009A00080838081806880831092C10008958E309A
:1009B00008F08E5087702091030190E4299F9001E8
:1009C0001124822B80937C0080917A008064809334
:1009D0007A0080917A0086FDFCCF8091780020918A
:1009E000790090E0922B0895833081F028F48130D3
:1009F00099F08230A1F008958730A9F08830B9F0DD
:100A00008430D1F4809180008F7D03C0809180007C
:100A10008F7780938000089584B58F7702C084B566
:100A20008F7D84BD08958091B0008F7703C0809141
:100A3000B0008F7D8093B0000895CF93DF9390E056
:100A4000FC01E458FF4F2491FC01E057FF4F8491D3
:100A5000882349F190E0880F991FFC01E255FF4F70
:100A6000A591B4918C559F4FFC01C591D4919FB72E
:100A7000611108C0F8948C91209582238C93888111
:100A800082230AC0623051F4F8948C91322F309551
:100A900083238C938881822B888304C0F8948C9163
:100AA000822B8C939FBFDF91CF9108950F931F935B
:100AB000CF93DF931F92CDB7DEB7282F30E0F90137
:100AC000E859FF4F8491F901E458FF4F1491F9015F
:100AD000E057FF4F04910023C9F0882321F0698378
:100AE0000E94F4046981E02FF0E0EE0FFF1FEC5547
:100AF000FF4FA591B4919FB7F8948C91611103C0F9
:100B00001095812301C0812B8C939FBF0F90DF91A3
:100B1000CF911F910F910895FC01818D228D90E05E
:100B2000805C9F4F821B91098F7399270895FC0168
:100B3000918D828D981731F0828DE80FF11D858D92
:100B400090E008958FEF9FEF0895FC01918D828DC5
:100B5000981761F0828DDF01A80FB11D5D968C9111
:100B6000928D9F5F9F73928F90E008958FEF9FEF1C
:100B7000089589E297E0892B49F080E090E0892B85
:100B800029F00E94290781110C9400000895FC01AE
:100B9000848DDF01A80FB11DA35ABF4F2C91848D06
:100BA00090E001968F739927848FA689B7892C933B
:100BB000A089B1898C9180648C93938D848D9813D6
:100BC00006C00288F389E02D80818F7D808308959F
:100BD000CF93DF93EC01888D8823C9F0EA89FB89E4
:100BE000808185FD05C0A889B9898C9186FD0FC0DB
:100BF0000FB607FCF5CF808185FFF2CFA889B989B0
:100C00008C9185FFEDCFCE010E94C705E7CFDF9124
:100C1000CF910895CF92DF92FF920F931F93CF93BE
:100C2000DF931F92CDB7DEB76C0181E0D6015896F5
:100C30008C9358975B969C915B975C968C915C9794
:100C4000981307C05096ED91FC915197808185FDD6
:100C50002EC0F601038D10E00F5F1F4F0F73112799
:100C6000F02EF601848DF81211C00FB607FCF9CFF3
:100C7000D6015096ED91FC915197808185FFF1CF7F
:100C8000C60169830E94C7056981EBCF838DE80F98
:100C9000F11DE35AFF4F6083D6015B960C935B977F
:100CA0005296ED91FC915397808180620CC0D601E1
:100CB0005696ED91FC91579760835096ED91FC917B
:100CC000519780818064808381E090E00F90DF9174
:100CD000CF911F910F91FF90DF90CF900895BF9219
:100CE000CF92DF92EF92FF92CF93DF93EC016A01F4
:100CF0007B01B22EE889F98982E08083411581EE7B
:100D0000580761057105A1F060E079E08DE390E09E
:100D1000A70196010E94A9082150310941095109F2
:100D20005695479537952795211580E1380798F016
:100D3000E889F989108260E874E88EE190E0A70103
:100D400096010E94A908215031094109510956957F
:100D5000479537952795EC85FD853083EE85FF8592
:100D60002083188EEC89FD89B082EA89FB89808115
:100D700080618083EA89FB89808188608083EA8939
:100D8000FB89808180688083EA89FB8980818F7DEF
:100D90008083DF91CF91FF90EF90DF90CF90BF9055
:100DA00008951F920F920FB60F9211242F938F93D5
:100DB0009F93EF93FF93E0916002F0916102808135
:100DC000E0916602F091670282FD12C090818091ED
:100DD00069028F5F8F7320916A02821751F0E09150
:100DE0006902F0E0E05BFD4F958F8093690201C0DE
:100DF0008081FF91EF919F918F912F910F900FBE66
:100E00000F901F9018951F920F920FB60F921124FA
:100E10002F933F934F935F936F937F938F939F9302
:100E2000AF93BF93EF93FF9380E592E00E94C705D5
:100E3000FF91EF91BF91AF919F918F917F916F91B2
:100E40005F914F913F912F910F900FBE0F901F9088
:100E5000189580E592E00E948C0521E0892B09F429
:100E600020E0822F0895109253021092520288EED1
:100E700093E0A0E0B0E08093540290935502A093D9
:100E80005602B093570289EE91E0909351028093FD
:100E9000500285EC90E090935D0280935C0284ECBC
:100EA00090E090935F0280935E0280EC90E09093DC
:100EB00061028093600281EC90E0909363028093E2
:100EC000620282EC90E0909365028093640286EC6B
:100ED00090E09093670280936602109269021092EC
:100EE0006A0210926B0210926C02089508950E949B
:100EF0009C040E9476070E948700C9EBD5E00E94FF
:100F00007D022097E1F30E94B905F9CFCF92DF92DD
:100F1000EF92FF920F931F93CF93DF937C016A01AF
:100F2000EB0100E010E00C151D0571F06991D7018F
:100F3000ED91FC910190F081E02DC7010995892B7D
:100F400019F00F5F1F4FEFCFC801DF91CF911F91B5
:100F50000F91FF90EF90DF90CF900895611571058C
:100F600081F0DB010D900020E9F7AD0141505109FE
:100F7000461B570BDC01ED91FC910280F381E02DC3
:100F8000099480E090E008950C94AE07DC01ED91A7
:100F9000FC910190F081E02D09946AE971E00C94D4
:100FA000AE070F931F93CF93DF93EC010E94AE0720
:100FB0008C01CE010E94CD07800F911FDF91CF9150
:100FC0001F910F9108958F929F92AF92BF92DF92DF
:100FD000EF92FF920F931F93CF93DF93CDB7DEB7BE
:100FE000A1970FB6F894DEBF0FBECDBF7C01F42FE2
:100FF000D52ECB0119A2223008F42AE08E010F5D14
:101000001F4F822E912CA12CB12C6F2F7D2DA5016D
:1010100094010E94A908F22FD32ECA010150110990
:101020006A3014F4E0E301C0E7E3E60FD801EC9383
:10103000232B242B252B49F7B801C7010E94AE07AB
:10104000A1960FB6F894DEBF0FBECDBFDF91CF9152
:101050001F910F91FF90EF90DF90BF90AF909F9006
:101060008F900895CF92DF92EF92FF920F931F938C
:10107000CF93DF93EC016A017B012115310579F4EF
:10108000E881F9810190F081E02D642FDF91CF910B
:101090001F910F91FF90EF90DF90CF9009942A302D
:1010A0003105E9F477FF1AC06DE20E94C6078C0192
:1010B00044275527BA014C195D096E097F092AE0BA
:1010C000CE010E94E307800F911FDF91CF911F9106
:1010D0000F91FF90EF90DF90CF9008952AE0B70135
:1010E000A601CE01DF91CF911F910F91FF90EF905C
:1010F000DF90CF900C94E3070F931F93CF93DF9370
:10110000EC019A01AB01662757FD6095762F0E948E
:1011100032088C01CE010E94CD07800F911FDF9114
:10112000CF911F910F9108952115310541F4DC01F4
:10113000ED91FC910190F081E02D642F09940C94C5
:10114000E3079A01462F50E060E070E00C949408A9
:101150000895A1E21A2EAA1BBB1BFD010DC0AA1FF8
:10116000BB1FEE1FFF1FA217B307E407F50720F010
:10117000A21BB30BE40BF50B661F771F881F991F8B
:101180001A9469F760957095809590959B01AC01D4
:10119000BD01CF010895EE0FFF1F0590F491E02DE2
:0611A0000994F894FFCF52
:1011A60001010001564D4450565F317C315F564D6A
:1011B6004450560D0A00436F6C64576F726B203DA6
:1011C6002000436F6C6432576F726B696E672E2E08
:1011D6002E2E00436F6C6431576F726B696E672EEB
:1011E6002E2E2E00436F6C64696E672E2E2E2E00F7
:1011F600486F74576F726B203D2000486F74576FAD
:10120600726B696E672E2E2E2E00486F74536C65B6
:101216006570696E672E2E2E2E00564D4450455F22
:1012260031007C005F564D4450450D0A00564D4432
:1012360050435F005F564D4450430D0A004572729D
:101246006F723A20417474656D707420746F2073E8
:101256006574206120726561642D6F6E6C792076ED
:1012660061726961626C65206F72206461746120CD
:1012760074797065206E6F7420737570706F7274F8
:1012860065640D0A00000000000A0686078C05A5A5
:10129600059705E8056E616E00696E66006F7666F5
:0212A600000046
:00000001FF
