:100000000C9462000C948A000C948A000C948A0070
:100010000C948A000C948A000C948A000C948A0038
:100020000C948A000C948A000C948A000C948A0028
:100030000C948A000C948A000C948A000C948A0018
:100040000C94D9020C948A000C94C1050C94F3050D
:100050000C948A000C948A000C948A000C948A00F8
:100060000C948A000C948A00000000080002010031
:100070000003040700000000000000000102040863
:100080001020408001020408102001020408102002
:10009000040404040404040402020202020203032E
:1000A00003030303000000002300260029000000D2
:1000B0000000250028002B0000000000240027007D
:1000C0002A00230611241FBECFEFD8E0DEBFCDBF2C
:1000D00011E0A0E0B1E0EEE5FFE002C005900D9276
:1000E000AA3AB107D9F722E0AAEAB1E001C01D920D
:1000F000A735B207E1F710E0C4ECD0E004C02297C6
:10010000FE010E94A907C23CD107C9F70E946706F9
:100110000C94AD070C94000026E040E855E260E046
:1001200070E08AEB91E00E945F051092B00110929E
:10013000AF0181E090E09093020180930101109261
:10014000AE011092AD01809300011092AC011092AB
:10015000AB011092AA0160E08FE00E94E40361E02D
:100160008FE00E941D0460E082E00E94E40361E0F1
:1001700082E00E941D0460E083E00E94E40361E0ED
:1001800083E00E941D0460E084E00E94E40361E0DB
:1001900084E00E941D0460E085E00E94E40361E0C9
:1001A00085E00E941D0460E086E00E94E40361E0B7
:1001B00086E00E941D0461E087E00E94E40361E0A4
:1001C00087E00E941D0461E088E00E94E40361E092
:1001D00088E00E941D0461E089E00E94E40361E080
:1001E00089E00E941D0461E08AE00E94E40361E06E
:1001F0008AE00E941D0461E08BE00E94E40361E05C
:100200008BE00E941D0461E08CE00E94E40361E049
:100210008CE00E941D0461E08DE00E94E40360E038
:100220008DE00C941D0480910001882369F080E02A
:100230000E945304892B09F011C184E00E945304E9
:10024000892B09F40BC10BC084E00E945304892B55
:1002500009F404C184E00E945304019711F4109240
:10026000AC018091AC01882309F4BEC063E071E069
:100270008AEB91E00E94B4066091AC0170E04AE024
:1002800050E08AEB91E00E946C0760E08BE00E94F6
:100290001D04809101019091020197FD24C080FD11
:1002A00022C061E08AE00E941D0460E088E00E94B4
:1002B0001D0461E087E00E941D046FE071E08AEB9D
:1002C00091E00E94C10660E271E08AEB91E00E9439
:1002D000B40660910101709102014AE050E08AEB9E
:1002E00091E00E946C078091AF019091B00197FD61
:1002F00024C080FD22C061E08AE00E941D0460E00D
:1003000087E00E941D0461E088E00E941D0462E312
:1003100071E08AEB91E00E94C10663E471E08AEB30
:1003200091E00E94B4066091AF017091B0014AE083
:1003300050E08AEB91E00E946C078091010190915E
:1003400002010797F4F160E08AE00E941D0461E079
:1003500087E00E941D0461E088E00E941D048CEF8C
:100360009FEF9093B0018093AF018DEF9FEF90933B
:1003700002018093010163E471E08AEB91E00E9445
:10038000B4066091AF017091B0014AE050E08AEB91
:1003900091E00E946C0760E271E08AEB91E00E94BC
:1003A000B40660910101709102014AE050E08AEBCD
:1003B00091E00E946C0765E571E08AEB91E00E9494
:1003C000C1068091AF019091B00101969093B00168
:1003D0008093AF0180910101909102010196909369
:1003E000020180930101089561E087E00E941D04ED
:1003F00061E088E00E941D0461E08AE00E941D0423
:1004000061E08BE00E941D041092B0011092AF01D8
:1004100081E090E0909302018093010163E471E038
:100420008AEB91E00E94B4066091AF017091B00137
:100430004AE050E08AEB91E00E946C0760E271E0D4
:100440008AEB91E00E94B406609101017091020173
:100450004AE050E08AEB91E00C946C0781E08093D5
:10046000AC01FFCE80910001882369F083E00E94F7
:100470005304892B09F470C085E00E945304892B32
:1004800009F46AC00BC085E00E945304892B09F46B
:1004900063C085E00E945304019711F41092AB01F0
:1004A0008091AB01882309F44FC061E671E08AEBCB
:1004B00091E00E94B4066091AB0170E04AE050E028
:1004C0008AEB91E00E946C0760E08CE00E941D04C2
:1004D0008091AD019091AE018530910580F460E08E
:1004E00089E00E941D048091AD019091AE010196BA
:1004F0009093AE018093AD016CE671E021C097FF4F
:100500000DC061E089E00E941D048091AD019091D1
:10051000AE0101969093AE018093AD018091AD0143
:100520009091AE010597E4F08BEF9FEF9093AE01B1
:100530008093AD0161E089E00E941D046BE771E0EA
:100540008AEB91E00C94C10661E089E00E941D04F1
:1005500061E08CE00C941D0481E08093AB01A0CF9E
:10056000089586E00E945304892B11F461E006C0CF
:1005700086E00E945304019721F460E08DE00C9422
:100580001D0408958FE00E945304892B21F481E01B
:100590008093000102C0109200010E94B1020E94EB
:1005A00013010E94320268EE73E080E090E00C9448
:1005B00046031F920F920FB60F9211242F933F9371
:1005C0008F939F93AF93BF938091B2019091B301AA
:1005D000A091B401B091B5013091B10123E0230F96
:1005E0002D3720F40196A11DB11D05C026E8230F6B
:1005F0000296A11DB11D2093B1018093B201909389
:10060000B301A093B401B093B5018091B60190916C
:10061000B701A091B801B091B9010196A11DB11D1A
:100620008093B6019093B701A093B801B093B9013C
:10063000BF91AF919F918F913F912F910F900FBEDE
:100640000F901F9018953FB7F8948091B601909144
:10065000B701A091B801B091B90126B5A89B05C01A
:100660002F3F19F00196A11DB11D3FBF6627782FBE
:10067000892F9A2F620F711D811D911D42E0660F17
:10068000771F881F991F4A95D1F708958F929F92DF
:10069000AF92BF92CF92DF92EF92FF926B017C01FB
:1006A0000E9423034B015C01C114D104E104F10455
:1006B000F1F00E9484070E942303681979098A09CE
:1006C0009B09683E73408105910570F321E0C21AD1
:1006D000D108E108F10888EE880E83E0981EA11C7D
:1006E000B11CC114D104E104F10429F7DDCFFF905E
:1006F000EF90DF90CF90BF90AF909F908F90089534
:10070000789484B5826084BD84B5816084BD85B5EC
:10071000826085BD85B5816085BDEEE6F0E08081B3
:1007200081608083E1E8F0E01082808182608083D4
:10073000808181608083E0E8F0E080818160808357
:10074000E1EBF0E0808184608083E0EBF0E0808189
:1007500081608083EAE7F0E080818460808380812B
:1007600082608083808181608083808180688083D3
:100770001092C1000895833081F028F4813099F0FF
:100780008230A1F008958730A9F08830B9F0843024
:10079000D1F4809180008F7D03C0809180008F779D
:1007A00080938000089584B58F7702C084B58F7DD3
:1007B00084BD08958091B0008F7703C08091B00010
:1007C0008F7D8093B0000895CF93DF9390E0FC017C
:1007D000E458FF4F2491FC01E057FF4F8491882398
:1007E00049F190E0880F991FFC01E854FF4FA59153
:1007F000B49182559F4FFC01C591D4919FB761116F
:1008000008C0F8948C91209582238C938881822350
:100810000AC0623051F4F8948C91322F30958323C2
:100820008C938881822B888304C0F8948C91822BCE
:100830008C939FBFDF91CF9108950F931F93CF9318
:10084000DF931F92CDB7DEB7282F30E0F901E859CA
:10085000FF4F8491F901E458FF4F1491F901E057DB
:10086000FF4F04910023C9F0882321F069830E947F
:10087000BB036981E02FF0E0EE0FFF1FE255FF4F51
:10088000A591B4919FB7F8948C91611103C0109514
:10089000812301C0812B8C939FBF0F90DF91CF915B
:1008A0001F910F910895CF93DF93282F30E0F90126
:1008B000E859FF4F8491F901E458FF4FD491F901B1
:1008C000E057FF4FC491CC2391F081110E94BB03EC
:1008D000EC2FF0E0EE0FFF1FEC55FF4FA591B49108
:1008E0002C912D2381E090E021F480E002C080E093
:1008F00090E0DF91CF910895FC01818D228D90E0F1
:10090000805C9F4F821B91098F7399270895FC018A
:10091000918D828D981731F0828DE80FF11D858DB4
:1009200090E008958FEF9FEF0895FC01918D828DE7
:10093000981761F0828DDF01A80FB11D5D968C9133
:10094000928D9F5F9F73928F90E008958FEF9FEF3E
:10095000089589E196E0892B49F080E090E0892BA9
:1009600029F00E94190681110C9400000895FC01E1
:10097000848DDF01A80FB11DA35ABF4F2C91848D28
:1009800090E001968F739927848FA689B7892C935D
:10099000A089B1898C9180648C93938D848D9813F8
:1009A00006C00288F389E02D80818F7D80830895C1
:1009B000CF93DF93EC01888D8823C9F0EA89FB8906
:1009C000808185FD05C0A889B9898C9186FD0FC0FD
:1009D0000FB607FCF5CF808185FFF2CFA889B989D2
:1009E0008C9185FFEDCFCE010E94B704E7CFDF9158
:1009F000CF910895CF92DF92FF920F931F93CF93E1
:100A0000DF931F92CDB7DEB76C0181E0D601589617
:100A10008C9358975B969C915B975C968C915C97B6
:100A2000981307C05096ED91FC915197808185FDF8
:100A30002EC0F601038D10E00F5F1F4F0F731127BB
:100A4000F02EF601848DF81211C00FB607FCF9CF15
:100A5000D6015096ED91FC915197808185FFF1CFA1
:100A6000C60169830E94B7046981EBCF838DE80FCB
:100A7000F11DE35AFF4F6083D6015B960C935B97A1
:100A80005296ED91FC915397808180620CC0D60103
:100A90005696ED91FC91579760835096ED91FC919D
:100AA000519780818064808381E090E00F90DF9196
:100AB000CF911F910F91FF90DF90CF900895BF923B
:100AC000CF92DF92EF92FF92CF93DF93EC016A0116
:100AD0007B01B22EE889F98982E08083411581EE9D
:100AE000580761057105A1F060E079E08DE390E0C1
:100AF000A70196010E94850721503109410951093A
:100B00005695479537952795211580E1380798F038
:100B1000E889F989108260E874E88EE190E0A70125
:100B200096010E94850721503109410951095695C6
:100B3000479537952795EC85FD853083EE85FF85B4
:100B40002083188EEC89FD89B082EA89FB89808137
:100B500080618083EA89FB89808188608083EA895B
:100B6000FB89808180688083EA89FB8980818F7D11
:100B70008083DF91CF91FF90EF90DF90CF90BF9077
:100B800008951F920F920FB60F9211242F938F93F7
:100B90009F93EF93FF93E091CA01F091CB01808185
:100BA000E091D001F091D10182FD12C0908180913D
:100BB000D3018F5F8F732091D401821751F0E091A0
:100BC000D301F0E0E654FE4F958F8093D30101C02E
:100BD0008081FF91EF919F918F912F910F900FBE88
:100BE0000F901F9018951F920F920FB60F9211241D
:100BF0002F933F934F935F936F937F938F939F9325
:100C0000AF93BF93EF93FF938AEB91E00E94B704F9
:100C1000FF91EF91BF91AF919F918F917F916F91D4
:100C20005F914F913F912F910F900FBE0F901F90AA
:100C300018958AEB91E00E947C0421E0892B09F44D
:100C400020E0822F08951092BD011092BC0188EE21
:100C500093E0A0E0B0E08093BE019093BF01A09329
:100C6000C001B093C1018FE891E09093BB018093E4
:100C7000BA0185EC90E09093C7018093C60184ECA3
:100C800090E09093C9018093C80180EC90E090932C
:100C9000CB018093CA0181EC90E09093CD018093C9
:100CA000CC0182EC90E09093CF018093CE0186EC52
:100CB00090E09093D1018093D0011092D3011092D3
:100CC000D4011092D5011092D601089508950E9482
:100CD00080030E9466060E948C00C9EAD4E00E944C
:100CE000C2022097E1F30E94A904F9CFCF92DF92CC
:100CF000EF92FF920F931F93CF93DF937C016A01D2
:100D0000EB0100E010E00C151D0571F06991D701B1
:100D1000ED91FC910190F081E02DC7010995892B9F
:100D200019F00F5F1F4FEFCFC801DF91CF911F91D7
:100D30000F91FF90EF90DF90CF90089561157105AE
:100D400081F0DB010D900020E9F7AD014150510920
:100D5000461B570BDC01ED91FC910280F381E02DE5
:100D6000099480E090E008950C949E06DC01ED91DA
:100D7000FC910190F081E02D09946BE971E00C94F5
:100D80009E060F931F93CF93DF93EC010E949E0664
:100D90008C01CE010E94BD06800F911FDF91CF9183
:100DA0001F910F9108958F929F92AF92BF92DF9201
:100DB000EF92FF920F931F93CF93DF93CDB7DEB7E0
:100DC000A1970FB6F894DEBF0FBECDBF7C01F42F04
:100DD000D52ECB0119A2223008F42AE08E010F5D36
:100DE0001F4F822E912CA12CB12C6F2F7D2DA50190
:100DF00094010E948507F22FD32ECA0101501109D8
:100E00006A3014F4E0E301C0E7E3E60FD801EC93A5
:100E1000232B242B252B49F7B801C7010E949E06DE
:100E2000A1960FB6F894DEBF0FBECDBFDF91CF9174
:100E30001F910F91FF90EF90DF90BF90AF909F9028
:100E40008F900895CF92DF92EF92FF920F931F93AE
:100E5000CF93DF93EC016A017B012115310579F411
:100E6000E881F9810190F081E02D642FDF91CF912D
:100E70001F910F91FF90EF90DF90CF9009942A304F
:100E80003105E9F477FF1AC06DE20E94B6068C01C5
:100E900044275527BA014C195D096E097F092AE0DC
:100EA000CE010E94D306800F911FDF91CF911F9139
:100EB0000F91FF90EF90DF90CF9008952AE0B70157
:100EC000A601CE01DF91CF911F910F91FF90EF907E
:100ED000DF90CF900C94D3060F931F93CF93DF93A3
:100EE000EC019A01AB01662757FD6095762F0E94B1
:100EF00022078C01CE010E94BD06800F911FDF9159
:100F0000CF911F910F9108950895A1E21A2EAA1B67
:100F1000BB1BFD010DC0AA1FBB1FEE1FFF1FA217A9
:100F2000B307E407F50720F0A21BB30BE40BF50BA6
:100F3000661F771F881F991F1A9469F7609570952F
:100F4000809590959B01AC01BD01CF010895EE0FF6
:0E0F5000FF1F0590F491E02D0994F894FFCF57
:100F5E00010100436F6C64576F726B203D2000439C
:100F6E006F6C6432576F726B696E672E2E2E2E0069
:100F7E00436F6C6432576F726B436F756E74203DA6
:100F8E002000436F6C6431576F726B696E672E2E43
:100F9E002E2E00436F6C6431576F726B436F756EFC
:100FAE0074203D2000436F6C64696E672E2E2E2ECA
:100FBE0000486F74576F726B203D2000486F745756
:100FCE006F726B696E672E2E2E2E00486F74536CE7
:100FDE00656570696E672E2E2E2E0000000000FAD9
:100FEE000476067C0495048704D8040D0A006E610D
:0A0FFE006E00696E66006F766600F3
:00000001FF
